{
  "_format": "hh-sol-artifact-1",
  "contractName": "MyFirstContract",
  "sourceName": "contracts/myFirstContract.sol",
  "abi": [
    {
      "inputs": [
        {
          "internalType": "address",
          "name": "_priceFeed",
          "type": "address"
        }
      ],
      "stateMutability": "nonpayable",
      "type": "constructor"
    },
    {
      "inputs": [],
      "name": "getLatestPrice",
      "outputs": [
        {
          "internalType": "int256",
          "name": "",
          "type": "int256"
        }
      ],
      "stateMutability": "view",
      "type": "function"
    },
    {
      "inputs": [],
      "name": "getNumber",
      "outputs": [
        {
          "internalType": "uint256",
          "name": "",
          "type": "uint256"
        }
      ],
      "stateMutability": "view",
      "type": "function"
    },
    {
      "inputs": [
        {
          "internalType": "uint256",
          "name": "_num",
          "type": "uint256"
        }
      ],
      "name": "setNumber",
      "outputs": [],
      "stateMutability": "nonpayable",
      "type": "function"
    }
  ],
  "bytecode": "0x608060405234801561001057600080fd5b5060405161027a38038061027a83398101604081905261002f91610058565b60008055600180546001600160a01b0319166001600160a01b0392909216919091179055610086565b600060208284031215610069578081fd5b81516001600160a01b038116811461007f578182fd5b9392505050565b6101e5806100956000396000f3fe608060405234801561001057600080fd5b50600436106100415760003560e01c80633fb5c1cb146100465780638e15f4731461005b578063f2c9ecd814610079575b600080fd5b61005961005436600461013f565b610081565b005b610063610086565b60405161007091906101a6565b60405180910390f35b61006361011a565b600055565b600080600160009054906101000a90046001600160a01b03166001600160a01b031663feaf968c6040518163ffffffff1660e01b815260040160a06040518083038186803b1580156100d757600080fd5b505afa1580156100eb573d6000803e3d6000fd5b505050506040513d601f19601f8201168201806040525081019061010f9190610157565b509194505050505090565b60005490565b805169ffffffffffffffffffff8116811461013a57600080fd5b919050565b600060208284031215610150578081fd5b5035919050565b600080600080600060a0868803121561016e578081fd5b61017786610120565b945060208601519350604086015192506060860151915061019a60808701610120565b90509295509295909350565b9081526020019056fea264697066735822122058270b262d1632f826898c5a54905ee90e81f277c5ab17fc475260d42852f8cf64736f6c63430008000033",
  "linkReferences": {},
  "deployedLinkReferences": {}
}